:020000040000fa
:080000000002040000000000f2
:020000040000fa
:04000800fa020000f8
:020000040000fa
:04000c000c030000e1
:020000040000fa
:0400100024030000c5
:020000040000fa
:0400140002030000e3
:020000040000fa
:0400180014030000cd
:020000040000fa
:04001c001c030000c1
:020000040000fa
:040020002c030000ad
:020000040000fa
:04002400ea030000eb
:020000040000fa
:04002800ea030000e7
:020000040000fa
:04002c00ea030000e3
:020000040000fa
:04003000ea030000df
:020000040000fa
:04003400ea030000db
:020000040000fa
:04003800ea030000d7
:020000040000fa
:04003c00ea030000d3
:020000040000fa
:04004000ea030000cf
:020000040000fa
:04004400ea030000cb
:020000040000fa
:04004800ea030000c7
:020000040000fa
:04004c00ea030000c3
:020000040000fa
:04005000ea030000bf
:020000040000fa
:040054008c03000019
:020000040000fa
:04005800340300006d
:020000040000fa
:04005c00ea030000b3
:020000040000fa
:04006000ea030000af
:020000040000fa
:04006400ea030000ab
:020000040000fa
:04006800ea030000a7
:020000040000fa
:04006c00ea030000a3
:020000040000fa
:04007000ea0300009f
:020000040000fa
:04007400ea0300009b
:020000040000fa
:04007800ea03000097
:020000040000fa
:04007c00ea03000093
:020000040000fa
:04008000ea0300008f
:020000040000fa
:04008400ea0300008b
:020000040000fa
:04008800ea03000087
:020000040000fa
:04008c00ea03000083
:020000040000fa
:04009000ea0300007f
:020000040000fa
:04009400ea0300007b
:020000040000fa
:04009800ea03000077
:020000040000fa
:04009c00ea03000073
:020000040000fa
:0400a000ea0300006f
:020000040000fa
:0400a400ea0300006b
:020000040000fa
:0400a800ea03000067
:020000040000fa
:0400ac00ea03000063
:020000040000fa
:0400b000ea0300005f
:020000040000fa
:0400b400ea0300005b
:020000040000fa
:0400b800ea03000057
:020000040000fa
:0400bc00ea03000053
:020000040000fa
:0400c000ea0300004f
:020000040000fa
:0400c400ea0300004b
:020000040000fa
:0400c800ea03000047
:020000040000fa
:0400cc00ea03000043
:020000040000fa
:0400d000ea0300003f
:020000040000fa
:0400d400ea0300003b
:020000040000fa
:0400d800ea03000037
:020000040000fa
:0400dc00ea03000033
:020000040000fa
:0400e000ea0300002f
:020000040000fa
:0400e400ea0300002b
:020000040000fa
:0400e800ea03000027
:020000040000fa
:0400ec00ea03000023
:020000040000fa
:0400f000ea0300001f
:020000040000fa
:0400f400ea0300001b
:020000040000fa
:0400f800ea03000017
:020000040000fa
:0400fc00ea03000013
:020000040000fa
:04010000ea0300000e
:020000040000fa
:04010400ea0300000a
:020000040000fa
:04010800ea03000006
:020000040000fa
:04010c00ea03000002
:020000040000fa
:04011000ea030000fe
:020000040000fa
:04011400ea030000fa
:020000040000fa
:04011800ea030000f6
:020000040000fa
:04011c00ea030000f2
:020000040000fa
:04012000ea030000ee
:020000040000fa
:04012400ea030000ea
:020000040000fa
:04012800ea030000e6
:020000040000fa
:04012c00d4030000f8
:020000040000fa
:04013000ea030000de
:020000040000fa
:04013400ea030000da
:020000040000fa
:04013800ea030000d6
:020000040000fa
:04013c00ea030000d2
:020000040000fa
:04014000ea030000ce
:020000040000fa
:04014400ea030000ca
:020000040000fa
:04014800ea030000c6
:020000040000fa
:04014c00ea030000c2
:020000040000fa
:04015000ea030000be
:020000040000fa
:04015400ea030000ba
:020000040000fa
:04015800ea030000b6
:020000040000fa
:04015c00ea030000b2
:020000040000fa
:04016000ea030000ae
:020000040000fa
:04016400ea030000aa
:020000040000fa
:04016800ea030000a6
:020000040000fa
:04016c00ea030000a2
:020000040000fa
:04017000ea0300009e
:020000040000fa
:04017400ea0300009a
:020000040000fa
:04017800ea03000096
:020000040000fa
:04017c00ea03000092
:020000040000fa
:04018000ea0300008e
:020000040000fa
:04018400ea0300008a
:020000040000fa
:04018800ea03000086
:020000040000fa
:04018c00ea03000082
:020000040000fa
:04019000ea0300007e
:020000040000fa
:04019400ea0300007a
:020000040000fa
:04019800ea03000076
:020000040000fa
:04019c00ea03000072
:020000040000fa
:0401a000ea0300006e
:020000040000fa
:0401a400ea0300006a
:020000040000fa
:0401a800ea03000066
:020000040000fa
:0401ac00ea03000062
:020000040000fa
:0401b000ea0300005e
:020000040000fa
:0401b400ea0300005a
:020000040000fa
:0401b800ea03000056
:020000040000fa
:0401bc00ea03000052
:020000040000fa
:0401c000ea0300004e
:020000040000fa
:0401c400ea0300004a
:020000040000fa
:0401c800ea03000046
:020000040000fa
:0401cc00ea03000042
:020000040000fa
:0401d000ea0300003e
:020000040000fa
:0401d400ea0300003a
:020000040000fa
:0401d800ea03000036
:020000040000fa
:0401dc00ea03000032
:020000040000fa
:0401e000ea0300002e
:020000040000fa
:0401e400ea0300002a
:020000040000fa
:0401e800ea03000026
:020000040000fa
:0401ec00ea03000022
:020000040000fa
:0401f000ea0300001e
:020000040000fa
:0401f400ea0300001a
:020000040000fa
:0401f800ea03000016
:020000040000fa
:0401fc00ea03000012
:020000040000fa
:04020000ea0300000d
:020000040000fa
:04020400ea03000009
:020000040000fa
:04020800ea03000005
:020000040000fa
:04020c00ea03000001
:020000040000fa
:04021000ea030000fd
:020000040000fa
:04021400ea030000f9
:020000040000fa
:04021800ea030000f5
:020000040000fa
:04021c00ea030000f1
:020000040000fa
:04022000ea030000ed
:020000040000fa
:04022400ea030000e9
:020000040000fa
:04022800ea030000e5
:020000040000fa
:04022c00ea030000e1
:020000040000fa
:04023000ea030000dd
:020000040000fa
:04023400ea030000d9
:020000040000fa
:04023800ea030000d5
:020000040000fa
:04023c00ea030000d1
:020000040000fa
:04024000ea030000cd
:020000040000fa
:04024400ea030000c9
:020000040000fa
:04024800ea030000c5
:020000040000fa
:04024c00ea030000c1
:020000040000fa
:04025000ea030000bd
:020000040000fa
:04025400ea030000b9
:020000040000fa
:04025800ea030000b5
:020000040000fa
:04025c00ea030000b1
:020000040000fa
:04026000ea030000ad
:020000040000fa
:04026400ea030000a9
:020000040000fa
:04026800ea030000a5
:020000040000fa
:04026c00ea030000a1
:020000040000fa
:04027000ea0300009d
:020000040000fa
:04027400ea03000099
:020000040000fa
:04027800ea03000095
:020000040000fa
:04027c00ea03000091
:020000040000fa
:04028000ea0300008d
:020000040000fa
:10040000cf0321000eff2c000e0188000000000029
:10041000000020000000e000020032000001200087
:100420002002880014000700ec0007000000e00034
:1004300003003a00009b200001002000020037006a
:100440000000200001002000810f70000100320038
:100450000f000700000020000000e0000200320052
:1004600000000200000000005e0902000000000021
:100470000040da000000fe00200020000000e00044
:1004800002003200100020009001880000000600e9
:10049000a1028800800478000000eb001f003700f4
:1004a000e284440054a0b4009905ba00e2844400f8
:1004b00054a0b4009906ba00e284440054a0b400e9
:1004c0000006eb00476fde00fd07b200ae018800ba
:1004d000636ce10003003a000ad801000000eb0061
:1004e0000e003700606ce10008003a00004deb00a0
:1004f0000a05e800020039003420ec000af0a000f0
:100500008b05e900f9ff3e00040037006168e10057
:10051000010032000086eb000b00070019c7ba008b
:100520000e04e0001905ba0003003a000a00e000da
:10053000dbff3a0000000600fe07b200ae028800b2
:100540008a047800f5ff37000cd0a300e20f4d00bd
:100550001c00390089027800354dba000a05e80010
:10056000020039003420ec000af0a0008b05e900fd
:100570000f003200254dba000a05e80002003900dc
:100580003420ec000af0a0008b05e90008003200de
:100590000c00e0000600320015cdba000a05e800a4
:1005a000020039003420ec000af0a0008b05e900bd
:1005b0008984e80054a0b4000b00e000e2ff3a0098
:1005c000000006009902ba00055d78008b05e9007d
:1005d000f7ff3200c82ade00055d78008b05e900d0
:1005e000f3ff32000c00e000f1ff320019ddba0029
:1005f000eeff37003600f800c028a9000000eb002d
:100600004c0307003600f8004e030700c048a9005d
:1006100010002000470307003600f800c068a9005a
:1006200020002000430307003600f800c088a9001e
:10063000300020003f0307003600f800c0a8a900e2
:10064000400020003b0307003600f800c608a90060
:1006500070002000370307003600f800c488a900a6
:10066000a000200033030700809fbe000000fa00b6
:100670005181800000202000008060000000e00028
:10068000020032002188a900200037000188a9005b
:100690001900370040818000104078000080fb0086
:1006a00020118800408180000000e800408188001f
:1006b0004181800040032100808f500002003a00f9
:1006c000c00221004081880051818000f0ef2f009e
:1006d000008060005081880041818000308180006e
:1006e000808f500004003a00508180000090a000ec
:1006f0005081880005003700111180000020200083
:10070000008060000000e000e2ff32000080fa009c
:100710004f00be0000400600809fbe000000fa00af
:10072000190037001081800031118000814078006d
:1007300001487800108180000000e80010818800e6
:1007400011818000c0032100808f500002003a0018
:10075000400321001081880051818000d0ff2f00cc
:10076000008060005081880011818000208180001d
:10077000808f500004003a00508180000000a000eb
:100780005081880004003700101180006100600073
:100790000000e000e3ff3a000168a9000080fa00d1
:1007a0004f00be0000400600801f78000000fa00e5
:1007b00010118000620060000000e00001003200c3
:1007c0002222a9000828a9000080fa004f00780022
:1007d000004006000040da000000fe0000000500b6
:020000040000fa
:1007e0000000fa0080002000001188002222ef00a3
:1007f000a0042000401188002168a80021e2a80080
:100800002342a800c002210040818800c0022100cc
:1008100030818800400321002081880040032100ae
:1008200010818800508180000010a0005081880055
:10083000508180000090a00050818800518180008c
:10084000f0ef2f000080600050818800518180000f
:10085000e0ff2f0000806000508188000080fa00d7
:10086000000006000200fa000040eb00004f780094
:1008700020818000104f7800208180000000e80077
:100880002081880021818000c0032100808f5000da
:1008900002003a004003210020818800218180006d
:1008a00010818000808f500003003a00508180004a
:1008b0000010a0005081880051818000e0ff2f00cf
:1008c00000806000508188001e4078000080fa009f
:1008d000000006000600fa00881f78001007980044
:1008e000210798000000eb00000f78000900370096
:1008f00050818000620060000000e0000a003a00c1
:100900001e0090001e044000d6ff0700004c780037
:100910001e0fe8002e0090009e007800808f50008f
:10092000f3ff390001003700000000001e007800ce
:100930004f0478000080fa00000006000200fa0070
:10094000004f78002188a900308180001e4878007f
:10095000308180000000e800308188003181800013
:1009600040032100808f500002003a00c0022100a5
:100970003081880051818000f0df2f00008060000e
:10098000508188004181800030818000808f50003c
:1009900003003a00508180000080a0005081880050
:1009a0002188a8000080fa00000006000600fa0076
:1009b00010079800210798000000eb00000f780056
:1009c0000a00370051818000001020000080600084
:1009d0000000e0000a003a001e0090001e004000e7
:1009e000104078001e0fe800d4ff07002e00900092
:1009f0009e007800808f5000f2ff39000100370020
:100a0000000000001e0078000080fa0000000600d0
:100a10000200fa000000eb00000f78005181800016
:100a200000102000008060000000e00001003200a3
:100a30001e30a00051818000002020000080600056
:100a40000000e000010032001e40a0005081800044
:100a5000610060000000e000010032001e00a00004
:100a600050818000620060000000e000020032005f
:100a70001e20a000010037001e10a0001e007800fc
:100a80000080fa00000006000200fa00000f780063
:100a9000208180009e004000c0032100808f500014
:100aa00009003600208180009e004000c003210024
:100ab0000000ea0000804000410321000080400067
:100ac0001040780003003700208180001e004000a5
:100ad000104078000080fa00000006000000fa00d4
:100ae00050818000610060000000e0000f003a00cb
:100af0002181800010818000808f50000500360029
:100b000020818000800078001081800000805000eb
:100b1000070037002081800080007800108180006d
:100b20000080500068004000010037000000eb002a
:100b30000080fa00000006000000fa0051818000e9
:100b400000102000008060000000e0000f003a006c
:100b50004181800030818000808f50000500360088
:100b6000408180008000780030818000008050004b
:100b700007003700408180008000780030818000cd
:100b80000080500068004000010037000000eb00ca
:100b90000080fa00000006000000fa00508180008a
:100ba0000000d100614060000080fb0000f0a70061
:100bb0000000ea000000ea004f00de00004078007c
:100bc0000080fa00000006000000fa00508180005a
:100bd0004800de00614060000080fb0000f0a700dc
:100be0000000ea000000ea004f00de00004078004c
:100bf0000080fa00000006000000fa0010118000da
:100c00000080fa00000006000000fa00c3e8a80017
:100c100000000000000000000080fa000000060054
:100c20000200fa00000f780021028000200f20004f
:100c3000008060001e007000200288000080fa0022
:100c4000000006000000fa005a0107000800070033
:100c500088010700b0000700e1fe0700eaff070077
:100c600000022000eeff07000080fa0000000600ee
:100c70000000fa0000142300203a88004827ef0003
:100c80004e27ef0050092000303a88004420a90088
:100c900044c0a90044e0a9004480a900120020003b
:100ca00080072000a10920003374200080497800cb
:100cb00081497800824978001200200060042000f9
:100cc0007105200023742000804978008149780054
:100cd0008249780000000000103a80006100600046
:100ce0000000e000fcff3a000080fa00000006006f
:100cf0000000fa00003a80000080fa0000000600c0
:100d00000200fa00faff0700000f78001e007800ca
:100d1000240007000004e000020032000000280068
:100d2000710007001e0078002a0007000004e000a0
:100d300002003200000024006b0007001e00780053
:100d4000320007000004e000020032000020200012
:100d5000650007001e0078003a0007000004e0006c
:100d600002003200000820005f0007001e0078002b
:100d7000420007000004e0000200320000042000ee
:100d8000590007001e0078004a0007000004e00038
:100d90000200320000012000530007000080fa002a
:100da000000006000400fa00100798000040eb0065
:100db000004f78001e0090000000e00002003d009f
:100dc00010c0b300004f78001e4078000080fa0089
:100dd000000006000400fa00100798000040eb0035
:100de000004f78009e00900000002400008060000a
:100df0000000e0000200320010c0b300004f780095
:100e00001e4078000080fa00000006000400fa008e
:100e1000100798000040eb00004f78009e00900003
:100e200000202000008060000000e000020032008e
:100e300010c0b300004f78001e4078000080fa0018
:100e4000000006000400fa00100798000040eb00c4
:100e5000004f78009e009000000820000080600095
:100e60000000e0000200320010c0b300004f780024
:100e70001e4078000080fa00000006000400fa001e
:100e8000100798000040eb00004f78009e00900093
:100e900000042000008060000000e000020032003a
:100ea00010c0b300004f78001e4078000080fa00a8
:100eb000000006000400fa00100798000040eb0054
:100ec000004f78001e009000700060000000e000fd
:100ed0000200320010c0b300004f78001e407800be
:100ee0000080fa00000006000200fa00000f7800ff
:100ef0009e80ea00003a800000806000003a88008e
:100f00000080fa00000006000000fa004027ef0011
:100f10000080fa00000006000000fa0070122000b5
:100f2000101288001000200020128800c000280045
:100f3000001288000080fa00000006000400fa0099
:100f4000000f7800110798000000000000128000d8
:100f5000620060000000e000fcff3a001e00780024
:100f6000104078000080fb00401288000000000064
:100f70000112800000022000008060000000e000fc
:100f8000fbff3a0040128000804078001e00900075
:100f9000014878000080fa00000006001800fa00fe
:100fa000100f9800210f9800320f98000000eb00fe
:100fb000000f78000000eb00100798000000eb0025
:100fc000700798000000eb00000f98001000200050
:100fd000600798001e0890000000e00005003a003d
:100fe0000000eb00500798007000470020079800b1
:100ff00004003700ee009000510798009e08900012
:10100000210798003e0890000000e00005003a002b
:101010000000eb00400798006e0047003007980082
:1010200005003700ee00900041079800be089000d0
:10103000310798000000000000128000620060008c
:101040000000e000fcff3a001d00370000128000a5
:10105000620060000000e00009003a002e009000ed
:10106000104078000080fb0040128800ae00900025
:101070005e00900000804000200798001e0fe800ee
:101080000112800000022000008060000000e000eb
:101090000b003a0040128000804078003e00900033
:1010a00001487800be0090004e0090000080400093
:1010b000300798001e0090000000e800100798001c
:1010c0002e0890009e007800808f5000dfff3900ce
:1010d0001000370001128000000220000080600034
:1010e0000000e0000b003a004012800080407800d1
:1010f0003e00900001487800be0090004e00900035
:1011000000804000300798001e0090000000e800ba
:10111000100798009e0090002e089000808f5000cd
:10112000ecff39001e0078000080fa000000060085
:101130000400fa00204798000e80e8008e00780036
:101140007eff07001e4078000080fa0000000600c5
:101150000600fa00000f7800110798002207980097
:101160002e0190009e0090001e0078008bff07006b
:101170000080fa00000006000000fa001112800052
:1011800000402000008060000000e00002003a0003
:101190000000eb0001003700100020000080fa0082
:1011a000000006000000fa00001280000080fa0033
:1011b000000006000000fa00042eef00142eef00dd
:1011c000f001200000708800f0632f00807088001c
:1011d0000c2eef001c2eef000a2eef001a2eef004f
:1011e000062eef00162eef003001200070708800f0
:1011f00030002000f0708800113a8000f00b2000d1
:10120000008160006004200071052000237420002c
:101210008049780081497800824978004134800013
:10122000f00f2c00008060000080a0004034880097
:101230002136800000f82f0080806000c00220006e
:101240000100700020368800103a8000000178000c
:101250000260a000600420007105200023742000bb
:101260008049780081497800824978000080fa003e
:10127000000006000000fa0001438000f0f82f0093
:10128000008060000040a0000043880031428000e0
:1012900080ff2f00008060000000a0003042880026
:1012a00021428000f0ff28000080600000c0a00004
:1012b000204288000080fa00000006000400fa00c6
:1012c000000f7800110798005efe070014cea900f9
:1012d00000cdb30096ff070098fd070000cdb300d6
:1012e00093ff070095fd070014cea80030862a0062
:0c12f0002121200001000700f4ff37005e
:020000040000fa
:1012fc00f03fb1000180b10006003500ee0309009b
:10130c0000000000403fb1000180b100fbff3d0038
:10131c001000b000203fb000020035000080090032
:08132c000000000000000600b3
:020000040000fa
:10133400000f78009e00780001808800ffff3700ce
:101344000000fa002000210080077800a00121009d
:0c135400000188000080fa000000060084
:020000040000fa
:1013600002100000200000008000000000100000bb
:101370000200000082000000ffff000022100000b9
:0c1380001a0000008000000000000000c7
:020000040000fa
:02000004000af0
:04afe000cfff00009f
:020000040000fa
:02000004000af0
:04afe400cfff00009b
:020000040000fa
:02000004000af0
:04afe8007fff0000e7
:020000040000fa
:02000004000af0
:04afec007bff0000e7
:020000040000fa
:02000004000af0
:04aff000f8ff000066
:020000040000fa
:02000004000af0
:04aff400ffff00005b
:00000001FF
