:020000040000fa
:080000000002040000000000f2
:020000040000fa
:0400080006030000eb
:020000040000fa
:04000c0018030000d5
:020000040000fa
:0400100030030000b9
:020000040000fa
:040014000e030000d7
:020000040000fa
:0400180020030000c1
:020000040000fa
:04001c0028030000b5
:020000040000fa
:0400200038030000a1
:020000040000fa
:04002400e0030000f5
:020000040000fa
:04002800e0030000f1
:020000040000fa
:04002c00e0030000ed
:020000040000fa
:04003000e0030000e9
:020000040000fa
:04003400e0030000e5
:020000040000fa
:04003800e0030000e1
:020000040000fa
:04003c00e0030000dd
:020000040000fa
:04004000e0030000d9
:020000040000fa
:04004400e0030000d5
:020000040000fa
:04004800e0030000d1
:020000040000fa
:04004c00e0030000cd
:020000040000fa
:04005000e0030000c9
:020000040000fa
:04005400ae030000f7
:020000040000fa
:040058004003000061
:020000040000fa
:04005c00e0030000bd
:020000040000fa
:04006000e0030000b9
:020000040000fa
:04006400e0030000b5
:020000040000fa
:04006800e0030000b1
:020000040000fa
:04006c00e0030000ad
:020000040000fa
:04007000e0030000a9
:020000040000fa
:04007400e0030000a5
:020000040000fa
:04007800e0030000a1
:020000040000fa
:04007c00e00300009d
:020000040000fa
:04008000e003000099
:020000040000fa
:04008400e003000095
:020000040000fa
:04008800e003000091
:020000040000fa
:04008c00e00300008d
:020000040000fa
:04009000e003000089
:020000040000fa
:04009400e003000085
:020000040000fa
:04009800e003000081
:020000040000fa
:04009c00e00300007d
:020000040000fa
:0400a000e003000079
:020000040000fa
:0400a400e003000075
:020000040000fa
:0400a800e003000071
:020000040000fa
:0400ac00e00300006d
:020000040000fa
:0400b000e003000069
:020000040000fa
:0400b400e003000065
:020000040000fa
:0400b800e003000061
:020000040000fa
:0400bc00e00300005d
:020000040000fa
:0400c000e003000059
:020000040000fa
:0400c400e003000055
:020000040000fa
:0400c800e003000051
:020000040000fa
:0400cc00e00300004d
:020000040000fa
:0400d000e003000049
:020000040000fa
:0400d400e003000045
:020000040000fa
:0400d800e003000041
:020000040000fa
:0400dc00e00300003d
:020000040000fa
:0400e000e003000039
:020000040000fa
:0400e400e003000035
:020000040000fa
:0400e800e003000031
:020000040000fa
:0400ec00e00300002d
:020000040000fa
:0400f000e003000029
:020000040000fa
:0400f400e003000025
:020000040000fa
:0400f800e003000021
:020000040000fa
:0400fc00e00300001d
:020000040000fa
:04010000e003000018
:020000040000fa
:04010400e003000014
:020000040000fa
:04010800e003000010
:020000040000fa
:04010c00e00300000c
:020000040000fa
:04011000e003000008
:020000040000fa
:04011400e003000004
:020000040000fa
:04011800e003000000
:020000040000fa
:04011c00e0030000fc
:020000040000fa
:04012000e0030000f8
:020000040000fa
:04012400e0030000f4
:020000040000fa
:04012800e0030000f0
:020000040000fa
:04012c009803000034
:020000040000fa
:04013000e0030000e8
:020000040000fa
:04013400e0030000e4
:020000040000fa
:04013800e0030000e0
:020000040000fa
:04013c00e0030000dc
:020000040000fa
:04014000e0030000d8
:020000040000fa
:04014400e0030000d4
:020000040000fa
:04014800e0030000d0
:020000040000fa
:04014c00e0030000cc
:020000040000fa
:04015000e0030000c8
:020000040000fa
:04015400e0030000c4
:020000040000fa
:04015800e0030000c0
:020000040000fa
:04015c00e0030000bc
:020000040000fa
:04016000e0030000b8
:020000040000fa
:04016400e0030000b4
:020000040000fa
:04016800e0030000b0
:020000040000fa
:04016c00e0030000ac
:020000040000fa
:04017000e0030000a8
:020000040000fa
:04017400e0030000a4
:020000040000fa
:04017800e0030000a0
:020000040000fa
:04017c00e00300009c
:020000040000fa
:04018000e003000098
:020000040000fa
:04018400e003000094
:020000040000fa
:04018800e003000090
:020000040000fa
:04018c00e00300008c
:020000040000fa
:04019000e003000088
:020000040000fa
:04019400e003000084
:020000040000fa
:04019800e003000080
:020000040000fa
:04019c00e00300007c
:020000040000fa
:0401a000e003000078
:020000040000fa
:0401a400e003000074
:020000040000fa
:0401a800e003000070
:020000040000fa
:0401ac00e00300006c
:020000040000fa
:0401b000e003000068
:020000040000fa
:0401b400e003000064
:020000040000fa
:0401b800e003000060
:020000040000fa
:0401bc00e00300005c
:020000040000fa
:0401c000e003000058
:020000040000fa
:0401c400e003000054
:020000040000fa
:0401c800e003000050
:020000040000fa
:0401cc00e00300004c
:020000040000fa
:0401d000e003000048
:020000040000fa
:0401d400e003000044
:020000040000fa
:0401d800e003000040
:020000040000fa
:0401dc00e00300003c
:020000040000fa
:0401e000e003000038
:020000040000fa
:0401e400e003000034
:020000040000fa
:0401e800e003000030
:020000040000fa
:0401ec00e00300002c
:020000040000fa
:0401f000e003000028
:020000040000fa
:0401f400e003000024
:020000040000fa
:0401f800e003000020
:020000040000fa
:0401fc00e00300001c
:020000040000fa
:04020000e003000017
:020000040000fa
:04020400e003000013
:020000040000fa
:04020800e00300000f
:020000040000fa
:04020c00e00300000b
:020000040000fa
:04021000e003000007
:020000040000fa
:04021400e003000003
:020000040000fa
:04021800e0030000ff
:020000040000fa
:04021c00e0030000fb
:020000040000fa
:04022000e0030000f7
:020000040000fa
:04022400e0030000f3
:020000040000fa
:04022800e0030000ef
:020000040000fa
:04022c00e0030000eb
:020000040000fa
:04023000e0030000e7
:020000040000fa
:04023400e0030000e3
:020000040000fa
:04023800e0030000df
:020000040000fa
:04023c00e0030000db
:020000040000fa
:04024000e0030000d7
:020000040000fa
:04024400e0030000d3
:020000040000fa
:04024800e0030000cf
:020000040000fa
:04024c00e0030000cb
:020000040000fa
:04025000e0030000c7
:020000040000fa
:04025400e0030000c3
:020000040000fa
:04025800e0030000bf
:020000040000fa
:04025c00e0030000bb
:020000040000fa
:04026000e0030000b7
:020000040000fa
:04026400e0030000b3
:020000040000fa
:04026800e0030000af
:020000040000fa
:04026c00e0030000ab
:020000040000fa
:04027000e0030000a7
:020000040000fa
:04027400e0030000a3
:020000040000fa
:04027800e00300009f
:020000040000fa
:04027c00e00300009b
:020000040000fa
:04028000e003000097
:020000040000fa
:10040000cf0621000eff2c000e0188000000000026
:10041000000020000000e000020032000001200087
:100420002002880014000700e70007000000e00039
:1004300003003a00806c2200010020000200370017
:100440000000200001002000810f70000100320038
:100450000f000700000020000000e0000200320052
:100460000000020000000000f42002000000000074
:100470000040da000000fe00200020000000e00044
:1004800002003200100020009001880000000600e9
:10049000a1028800800478000000eb001f003700f4
:1004a000e284440054a0b4009905ba00e2844400f8
:1004b00054a0b4009906ba00e284440054a0b400e9
:1004c0000006eb00476fde00fd07b200ae018800ba
:1004d000636ce10003003a000ad801000000eb0061
:1004e0000e003700606ce10008003a00004deb00a0
:1004f0000a05e800020039003420ec000af0a000f0
:100500008b05e900f9ff3e00040037006168e10057
:10051000010032000086eb000b00070019c7ba008b
:100520000e04e0001905ba0003003a000a00e000da
:10053000dbff3a0000000600fe07b200ae028800b2
:100540008a047800f5ff37000cd0a300e20f4d00bd
:100550001c00390089027800354dba000a05e80010
:10056000020039003420ec000af0a0008b05e900fd
:100570000f003200254dba000a05e80002003900dc
:100580003420ec000af0a0008b05e90008003200de
:100590000c00e0000600320015cdba000a05e800a4
:1005a000020039003420ec000af0a0008b05e900bd
:1005b0008984e80054a0b4000b00e000e2ff3a0098
:1005c000000006009902ba00055d78008b05e9007d
:1005d000f7ff3200c82ade00055d78008b05e900d0
:1005e000f3ff32000c00e000f1ff320019ddba0029
:1005f000eeff3700b21e040000000000421f04009e
:1006000000000000881f0400000000003600f80011
:10061000c028a9000000eb00111207003600f80006
:1006200013120700c048a900100020000c12070098
:100630003600f800c068a90020002000081207005a
:100640003600f800c088a90030002000041207001e
:100650003600f800c0a8a9004000200000120700e2
:100660003600f800c608a90070002000fc11070041
:100670003600f800c488a900a0002000f811070087
:10068000809fbe000000fa00d18280000020200080
:10069000008060000000e000020032002188a90014
:1006a000200037000188a90019003700c0828000af
:1006b000104078000080fb0020118800c08280007c
:1006c0000000e800c0828800c1828000400621004e
:1006d000808f500002003a00c0052100c0828800cf
:1006e000d1828000f0ef2f0000806000d08288006f
:1006f000c1828000b0828000808f500004003a00e8
:10070000d08280000090a000d082880005003700d1
:100710001111800000202000008060000000e00037
:10072000e2ff32000080fa004f00be0000400600e9
:10073000801f78000000fa00101180006200600045
:100740000000e000010032002222a9000828a900d0
:100750000080fa004f00780000400600801f7800fb
:100760000200fa002168a9000c0037003011800057
:10077000004f78001e407800e34f400003003a002d
:1007800010c0b30002f0b700040037001e4078002c
:10079000e24f400001003a000270ef0010118000ab
:1007a000610060000000e000f0ff3a000168a9006d
:1007b0002168a8000080fa004f0078000040060081
:1007c0000040da000000fe000000050003f0a20077
:1007d000889fbe008a9fbe008c1f78001901070009
:1007e000200133006450e1004f0032006420e1003a
:1007f0005200320003826c0007003b000905d00064
:100800000306d000820f54000c065d000200390080
:1008100002003200890178000306780085825500c5
:1008200004003d000003fd008103fd008502ea0095
:100830008b854200840f720002003b0060001000b4
:10084000e08018006011b8000005eb007a28e10094
:100850000a00390006007800c75ddd00f707b20026
:10086000878075002d003700828171000a017800b1
:10087000610560008180d1000080d3008502e9001d
:10088000f9ff3b00060440008784480002003b005b
:1008900060041400e0841c000988a30007003200f3
:1008a0008a81710082817100610164008904d10034
:1008b0000884d3008b05e800170037000978a300ef
:1008c00013003a000b00e000130034008b05e90030
:1008d0000804440089844c000a4474000978a30089
:1008e0000d003a000b00e000070034008b05e90022
:1008f0000804440089844c0001003a000b002000e9
:100900000978a300f7ff32000001eb000200370076
:10091000828171000a0178008f0007000cf0a700a7
:1009200001f0a000d80037006420e10002003a0086
:10093000838f6c00d80033000801be000200be00a7
:10094000d1003700889fbe008a9fbe008c1f7800b0
:10095000bc000700c300330003866c006450e10054
:100960002e0032006420e100330032006150e100cb
:100970002f0032006120e1003100320085855500f2
:10098000eb07b00009002000080420000500370034
:100990000804440089844c000a0031000603430027
:1009a00087834b000001530081815b00f8ff330017
:1009b0000203be000800a0000804440089844c0023
:1009c000f6ff3900c639dd008301730001003200f3
:1009d000130020008904d1000884d3000998a300e3
:1009e000050032000800a7000300a0008904d10020
:1009f0000884d3008b05e8008904d1000884d30063
:100a00000001eb000281d2005300070001f0a100b9
:100a10000cf0a70001f0a0009b0037006420e1006b
:100a20009d0032000801be000200be00f7ff370043
:100a30006120e100980032006000b800f3ff370049
:100a40000000200001f82700f0ff37000001be0081
:100a5000670007000470a70003f0a1006509b1005a
:100a6000160032000d0035006828e1000600350050
:100a7000f0ff2f00f1ff27000300e00013003b0010
:100a800001002800000005000000400081804800af
:100a90008502e900fcff3a0008003700f88f4200a9
:100aa00002003c008000eb00000005008100d10046
:100ab0000080d3008502e800fcff3a000300e0005c
:100ac00002003b0060001000e080180000000600fb
:100ad0000001be00460007000470a70003f0a1005b
:100ae00003f8a30013003a006509b10010003200ba
:100af000090035006928e1000200350001002800e6
:100b00000000050000004000818048008502e900e7
:100b1000fcff3a0000000600f88f42000500350097
:100b20008100d1000080d3008502e800fcff3a007c
:100b3000000006008000eb00000005004f89de0089
:100b400082017800600337006011b8006e0337003f
:100b5000040020003d033700810020006180550023
:100b60000b003d000b00200061fe2f000100e100a2
:100b70001d00340082817100610164008904d1008c
:100b80000884d3000000e800faff3a00710020005a
:100b90006100640003007000020060000900320080
:100ba00061044400e0844c000988a500050032007f
:100bb0008b05e8006808e10002003a008904d100d2
:100bc0000884d300f20f20000258e10005003d0028
:100bd000c75ddd00f907b200898075000800780064
:100be000000006000bf827008b00780000000500cd
:100bf000c70ade00f107b200f50fb20008003200ac
:100c0000e1cf4200020032000170a0002400050084
:100c1000810f700001003200040805004400050047
:100c2000810f700002003a00140005008502e900ff
:100c30000000400081c04800fcff3b000170a000a4
:100c4000240005000004be00e9ff07000003be0009
:100c50000405be000200be00e5ff0700844f7500da
:100c6000000006000200be006450e10005003600ee
:100c70006420e100020036000968a30001003a0088
:100c80000800be000160a0004f0678004f05be00be
:100c90004f04be0000000600f0ff2f00f1ff270008
:100ca000f9ff3700889fbe008a9fbe008c1f780026
:100cb000e4ff0700ebff330003866c006450e100a3
:100cc000240032006420e100270032006150e1007e
:100cd000220032006120e100210032008b854200b9
:100ce000eb07b1000134b800003ab8000804420034
:100cf00089844a00013ab8000030b800888040007a
:100d000009014a00040033000000400081804800cf
:100d1000020149008b05e900c909dd00830170006b
:100d20000100320013002000c814de004814dd006a
:100d30004709de001200b200c808de000884700017
:100d400085ff070001f0a1000cf0a70001f0a00052
:100d5000cdff37006120e100cfff32000801be0067
:100d60000200be00f7ff37006150e100fcff3a00cf
:100d7000c9ff37000c00fa00889fbe008a9fbe00a2
:100d80008c9fbe00afff07000206be0084057800fe
:100d90000200be00020020008502070005003a00a4
:100da0008b02b300120020008102070001003a000c
:100db000f8856d000c01be00c60007000800be00eb
:100dc0009b0032000b08a3009e003a000df0a70024
:100dd0000be0a00009f0a7000bf0a00009f0a100b3
:100de0000801be00bb0007000bf0a6009500320012
:100df00001003c000bd0a0008acf7500b200330088
:100e00006000b8006250e10099003900a1003e0086
:100e10000b28a300a2003a000bf8a3000600320042
:100e20000b58a300a70032000801be00a90007006c
:100e30000800be00940032000800be00ed0107006b
:100e40000004be00050578000bf0a7000b30a600db
:100e50000bf0a1005b079800324f200053f32300f2
:100e60009502070005003d000800be0012002000aa
:100e7000d40207000004be000a05e9004a079800f2
:100e80006150b9002dff0700008fbe000c01be00ad
:100e900084ff0700edfe0700300798000100e00026
:100ea00002003d0060001000e0801800f2ff270003
:100eb000820f5000e08f580064003e000c00be001e
:100ec000e2fe070020079800f2072000820f500082
:100ed000e08f580005003c0012f82f00f3ff2f00b0
:100ee000820f5000838f580009003d000a00e00087
:100ef0000300320001003c000201ea000205780014
:100f00006000b800200798003a07980019003700e1
:100f10003e0090006100b90008ff0700809fbe00fe
:100f20000c00be004109dd004811de007208b1006e
:100f30001f0207000005be001e01be0059ff07008a
:100f40004f01be0021fe0700809fbe000c00be00c6
:100f50000a01be001dfe07001e01be0051ff070072
:100f60004f01be001afe07008221270013f3230061
:100f70004cff07000005be002e0090006100b90084
:100f8000eefe070001f0a2000c01be0010fe0700fb
:100f90000006be000800be00ac0207000c01be0047
:100fa00040ff07000a01be0009fe0700809fbe0047
:100fb0004a0007002e0590000af0a7000a05ea0083
:100fc000050037000800be000801be0035ff07001d
:100fd0000004be000c00be000801be000a00a7000d
:100fe00030ff07000006be000a05d100f5ff3a00f9
:100ff0005e01900002e0a600030037000001be0081
:10100000360007004ffe07000004be004f00be0080
:10101000850107000801be0022ff07003e01900085
:1010200068020700de0590000bf0a70001f0a200a7
:101030004f06be004f05be004f04be000080fa0000
:101040000000060025000700f9ff37002700070011
:101050006000b8000bd0a7000bc0a0000be0a700f9
:101060000bc0a2000bc0a70001f82700f0ff37005b
:101070000df8a300020032001e000700190007004f
:101080000bf8a300eaff32000b30a70001f0a2002a
:10109000e7ff37000df8a300f9ff3a00f7ff37002c
:1010a0000801be000b000700e6ff320001003c0013
:1010b0000df0a2006000b8000df0a70009000700c5
:1010c000dbff37000b000700f1ff2700f0ff2f00c8
:1010d000d7ff370001000700f701370001f82300b0
:1010e0000000050001f82700000005002002200094
:1010f0000100370010022000208088000000060058
:101100006022b800060220000000d0008180d200da
:101110000482d2008582d2000000a00002025200a8
:1011200083825a00030031000202420083824a0097
:101130000000a1000603e900f3ff3a0000000600ea
:10114000889fbe008a9fbe0030044200b0844a00df
:1011500030054b0090854b006000b1000898be0040
:101160000a90be000440e10005c8e10006d0e1009d
:1011700007d8e10002003100680040001008e800d4
:101180004f05be004f04be0000000600889fbe0051
:101190008a9fbe0010047800900490002005900003
:1011a000b00590000418540005985c0006185d0016
:1011b00007985d00110020000440e10005c8e1002f
:1011c00006d0e10007d8e100010039008000eb0003
:1011d000108810004f05be004f04be00000006003e
:1011e0001200fa00889fbe008a9fbe008c9fbe003e
:1011f000e0b79f00f1b79f0082bf9f0093bf9f00a1
:101200000605be000404be000000eb00d0b79f003e
:10121000c0b79f00b0b79f00a0b79f0090b79f00d6
:101220000006eb005fb19700cfb09700820141004c
:101230003fb097000200e00004003d0037000700c7
:101240007e805700beff0700030037003300070011
:101250007e805700cdff0700dfb697000d00e0004d
:101260000c0035006fb29700ffb297000fbb9700dc
:101270009fbb970010002000010020006011b80003
:101280000002720081827200020373008383730084
:101290001b0007000c06e80001042000810f560027
:1012a000e0ff3a000d00e00004003d000802be002f
:1012b0000a03be007e805700a1ff07005fa89700c9
:1012c0000000e00005003a001fb29700afb297009f
:1012d0003fb39700cfb39700090007006fb09700a6
:1012e000ffb097000fb997009fb997004f06be0057
:1012f0004f05be004f04be000080fa00000006004b
:101300000100070000000600a4b79f00b5b79f00ca
:10131000c6b79f00d7b79f00000006004f09de0048
:1013200082817100b3b79f004f01de0081804000d1
:1013300082807000a1b79f008fb097004f09de0038
:10134000000040000200700090b79f007fa8970047
:101350004f01de00818040008280700081b79f00d5
:101360000d0007004f3ade0000004000040070004e
:10137000f0af9f00080007000402420085824a0087
:1013800006034b0087834b00dfff07000802be0007
:101390000a03be00000006002fb29700bfb29700fc
:1013a0004fb39700dfb3970000000600881f780056
:1013b00018002000881f780089ff07008f87e90048
:1013c0004f04780000000600801feb0084ff070038
:1013d0008f87e90000000600889fbe008a9fbe003c
:1013e000e00f5000e08f5800e00f5900e08f5900e7
:1013f0000c003d006044b8006055b8000000540087
:1014000081805c0002015d0083815d001800200086
:101410001500070008003d00180007000004eb005d
:10142000050037000004eb000f00070002003d003c
:101430001200070018002000dcff07000800e00091
:10144000060032006022b8006033b800000052008d
:1014500081805a0002015b0083815b004f05be0062
:101460004f04be0000000600e00f5200e08f5a005b
:10147000e00f5b00e08f5b00000006006044b800f6
:101480006055b8000402540085825c0006035d00cc
:1014900087835d0000000600889fbe008a9fbe0013
:1014a0008c1f7800e00f5000e08f5800e00f5900cb
:1014b000e08f59000d003d006044b8006055b80051
:1014c0000000540081805c0002015d0083815d00aa
:1014d0001c0020000820e10009a8e1000ab0e1009a
:1014e0000bb8e1000d003d00080037000006eb00de
:1014f000e00f5200e08f5a00e00f5b00e08f5b00ce
:1015000006003d006044b8006055b8000402540075
:1015100085825c0006035d0087835d00aaff0700eb
:101520000c00e000060032006022b8006033b80012
:101530000000520081805a0002015b0083815b0041
:101540004f0678004f05be004f04be0000000600a5
:10155000889fbe008a9fbe008c1f78000006eb00ab
:10156000e00f5000e08f5800e00f5900e08f590065
:1015700007003d006044b8006055b800000054000a
:1015800081805c0002015d0083815d001c00200001
:10159000e00f5200e08f5a00e00f5b00e08f5b002d
:1015a00007003d006044b8006055b80004025400d4
:1015b00085825c0006035d0087835d000c00a2004d
:1015c000790107000c00e000060032006022b8003c
:1015d0006033b8000000520081805a0002015b00b5
:1015e00083815b004f0678004f05be004f04be00ac
:1015f000000006000003be007dfd07006220e10040
:10160000020032000600be0005000500e507b1003b
:10161000f107b20004f023008480700007f0a700f7
:1016200001f0a00024000500889fbe008a9fbe0034
:101630008c9fbe000004be006dfd07000800be00c8
:101640006420e10048003e0055003200722127006e
:10165000132b24009a00070047003c000800be003e
:10166000c2ec2800e32c2c00930007004700350053
:101670000800be0001f0a100020020000338230092
:101680008d000700430035000800be00b2a32a0009
:1016900083fb230083fd07000200200003f02300ea
:1016a00001f0a70003f0a00049fc0700e7fc0700d9
:1016b0000005be0021fd070001f0a2000006be00eb
:1016c0000200280013f3230076fd07000801be0086
:1016d0003ffc0700809fbe000c00be0032082800bf
:1016e000e3952b006ffd07004f01be0038fc07009b
:1016f0000006be000001be006afd0700809fbe001c
:101700004241250083b8230066fd07000200200047
:1017100003e823002efc07000c01be0061fd07005a
:101720000006be004f00be00f2f92b00c3d4230018
:101730005cfd07000200200003f0230024fc0700ea
:101740000c01be0021fc07000001be000c00be0021
:101750007cfc07000200200003f023001cfc0700b3
:1017600061014500970007004f06be004f05be000f
:101770004f04be000000060001f827000000200012
:101780002202200022808800f7ff37006000b800a6
:10179000fbff370001f8230000002000f2ff3700b4
:1017a00009f8a300f0ff32006000b800eeff370038
:1017b000889fbe008a9fbe000003be000cfd07008c
:1017c0008505780082815200020020006220e1003d
:1017d00004003a00f307b100040035007718e10077
:1017e000040035000600be00140037006000b80099
:1017f0000f003700f50f2000faff2f008502d100ff
:101800000a85d3008301e900fcff3b00818462006c
:1018100000046500890f7400f2ff32008582ea003f
:101820000a85ea008184620000046500cafc0700a2
:1018300007f0a70001f0a0000081eb000200e0002b
:101840004f05be004f04be0000000600889fbe008a
:101850008a9fbe00841f7800fafc07004f007800c2
:1018600011003300f0ff2f00838f6c0006003b0057
:10187000040565000a00a7000800370009f0a6006b
:101880001000200008003700820f5400838f5c0096
:10189000030039001000200001003e00000020007d
:1018a00009f0a7000000ea004f05be004f04be008b
:1018b0000000e0000000060014002000e3ff3700f5
:1018c000f4ff2f00e1ff3700881f78000304780041
:1018d0000300e00007003d0060001000e0801800f9
:1018e00060011900e081190002003b0001f02d00a9
:1018f000030037000400070008f0a70001f0a00073
:101900004f04780000000600889fbe008a9fbe003a
:10191000008270000402710004827100260032000f
:101920000004be000200be006011b8006b09200078
:10193000950220000182cf000a0039000541b10064
:101940000082cf00070039000541b1000982cf00b5
:10195000040039000541b1000882cf0001003900c0
:101960000541b10005425200120032000a003b005e
:1019700082817100610164008100d1000080d30088
:101980008984d3000884d3008b05e8000442e80072
:10199000f7ff3a00070037000804440089844c0030
:1019a00000004800818048008b05e9000442e900fe
:1019b000f9ff3a0068fc07004f05be004f04be0067
:1019c000000006000003be0089fc07006220e10061
:1019d000020032000600be00000006008502410041
:1019e000e30f20000328e10005003c00a3fe2f00c8
:1019f0000328e10007003d0005002000010037003a
:101a0000f50f200020022000208088006000b80030
:101a100008003700130020008381520005003d00bc
:101a20008100d1000080d3008301e800fcff3a0070
:101a300005002000c72add00f107b2008580700094
:101a400007f0a70001f0a00000000600889fbe007c
:101a50008a9fbe008c9fbe00e6fe070085047800ca
:101a60000005be006420e10049003e006220e10064
:101a700003003200090035000bf8a30044003200d7
:101a80000bf8a3000800320010022000208088001c
:101a9000f0ff2f00f1ff27003d00370001f82f0075
:101aa000000020003a0037003d00070047fb070018
:101ab0000006be000a00be00324f200053f3230090
:101ac0007fff0700060034000c00be003400070052
:101ad0003efb07000006be000a00be000200370001
:101ae0008904e9000c00be002d0007006dfc070012
:101af0002b00070036fb07000001be000c00be00f3
:101b000090fb07000005be000001be0065fc070059
:101b10000006be00a2f32300430d2c002cfb07009f
:101b2000809fbe000c00be00d2e32700d3f02b0044
:101b30005cfc07004f01be0082fb07000006be00f0
:101b40000a01be0057fc07000a01be0020fb070087
:101b50000006be006148b900f8fb07000005be00a2
:101b600032082800e3952b004efc07000c01be0054
:101b700017fb07000006be000a00be000200280096
:101b800013f3230047fc07000c01be0010fb070005
:101b90004f06be004f05be004f04be000000060009
:101ba00003f0230002000500889fbe008a9fbe004c
:101bb0008c9fbe000404b8000506b80089044600e6
:101bc00060854e000606b8000a054600e0854e0016
:101bd0000706b8008b054600040eb80089044600cd
:101be0000a854e00e0854d00050eb8000a05460046
:101bf0008b854e00060eb8008b0546000416b80013
:101c00000a0546008b854e000516b8008b05460078
:101c1000041eb8008b0546000800be000a01be0085
:101c20004f06be004f05be004f04be000000060078
:020000040000fa
:101c30000a00fa00204798002107980062479800a0
:101c4000430798004e0090000e070700004f7800f1
:101c50001e4078000004e0001b003a002e009000b7
:101c60000000e000180032004e009000204090007c
:101c70000004e00003003a002e4090000074a00031
:101c8000204798004e009000200290006e40900087
:101c90008080fb004e009000104090008101780091
:101ca0002e019000ae40900004000100004f78002b
:101cb0001e4078000004e00005003200c0cfb300f1
:101cc000004f78000200370000c0eb00004f7800a2
:101cd0001e4078000080fa00000006001600fa009e
:101ce00070079800010f980022579800230f980062
:101cf0002e509000e44f50000200360040c0b30068
:101d0000205798002e089000de060700004f78004c
:101d10001e4078000004e0004a003a007e00900077
:101d20000000e000470032000e0890000000e000d4
:101d3000440032002e5090000004e0003e003200cb
:101d40000e08900010407800504798002e08900030
:101d5000204090000004e00015003a000040eb0035
:101d6000404798000e0037004e4090000080fb0076
:101d7000fe00900000804000ce4090008180fb007b
:101d80007e01900081004100914078000174a10023
:101d9000014878004e4090000040e800404798001d
:101da000ce4090002e50900080cf5000eeff3900c2
:101db0002e509000e14f50000c00360065004700a7
:101dc000ae5190000e099000800078007e009000d7
:101dd000c50607002e5090000080fb000000400068
:101de0000000e90010079800030037002e50900013
:101df0000080fb00100798002e0890003002900031
:101e00007e009000904078002e08900010409000d6
:101e1000650147009e01900004000100004f78001a
:101e20001e4078000004e00009003200c0cfb3007b
:101e3000004f780007003700d0cfb300004f780084
:101e40000400370000c0eb00004f780001003700ad
:101e5000000000001e4078000080fa00000006002c
:101e60000600fa002007980000ceb3001047980043
:101e700060cbb300204798002e0090008106070039
:101e8000004f78001e4078000004e0000b003a008c
:101e90008e80e8000e00e800ae01900012c0b30092
:101ea0008eff0700004f78002e0090004001900048
:101eb0002000200001002000020001001e407800e8
:101ec0000080fa00000006000400fa0010079800e5
:101ed00050c0b300104798001e009000690607002c
:101ee000004f78001e4078000004e00048003a00ef
:101ef0002b0037001e0090009e01900012c0b3001e
:101f00008000780000cdb30049ff0700004f780043
:101f10001e4078000004e00019003a001e00900006
:101f20009040780060c5b30080cf50000a003200b6
:101f30001e0090009040780070c5b30080cf500024
:101f4000050032001e0090009040780080c5b3006c
:101f500080cf50000a003a001e009000c0ff07002a
:101f6000004f78001e4078000004e00010003a00a6
:101f70001e0090007e060700004f78000d0037001d
:101f80001e00900040019000a000200001002000f1
:101f9000020001001e4090000040e9001047980038
:101fa0001e4090000004e000d2ff3a00010037001c
:101fb000000000001e4090000004e00002003a0013
:101fc000e0cfb300004f78001e4078000004e0002e
:101fd0000f003a001e0090008040eb00116898004e
:101fe0001e0090008040eb00716098001e00900081
:101ff0008040eb00616098001e0090008040eb0084
:10200000016898001e0090008040eb002168980055
:102010001e4078000080fa00000006000800fa0068
:1020200020079800310798000040eb001047980007
:102030000040eb00204798003e009000110607008a
:10204000004f78001e4078000004e00033003a00a2
:102050002e0090000000e000300032000e00e8008a
:10206000be01900022c0b3008000780040cfb300d2
:10207000effe0700004f78001e4078000004e000eb
:1020800028003a001e4090000080fb004500de0062
:10209000804078002e009000014878001e4090009b
:1020a0000080fb007c0060004280de008040780001
:1020b0002e009000114098002e4090000080fb0000
:1020c0004500de00804078002e00900021409800fe
:1020d0002e4090000080fb007c0060004280de000b
:1020e000804078002e009000314098002e409000f3
:1020f000e14060002e009000414098003e009000ba
:10210000ae009000620220000201400004000900bd
:10211000315978005100b1000200370000c0eb00d7
:10212000004f78001e4078000080fa000000060092
:102130000400fa00000f7800110798001e019000bb
:102140009e0078000040eb00810607000080fa0046
:10215000000006000600fa0010079800210798000a
:102160002e009000c7050700004f78001e40780041
:102170000004e00016003a001e0090000000e0009d
:10218000130032000e00e800ae01900012c0b30050
:102190008000780030cfb300a5fe0700004f780024
:1021a0001e4090000080fb00680060004380de005d
:1021b000804078001e009000014878001e4090008a
:1021c000e14060001e0090001140980002003700be
:1021d00000c0eb00004f78001e4078000080fa003d
:1021e000000006000600fa0010079800210798007a
:1021f0002e009000a3050700004f78001e407800d5
:102200000004e0000f003a001e0090000000e00013
:102210000c0032000e00e800ae01900012c0b300c6
:102220008000780040cfb30081fe0700004f7800a7
:102230001e409000e34060001e00900001487800be
:102240000200370000c0eb00004f78001e4078000d
:102250000080fa00000006000600fa0020479800ff
:10226000210798002e00900086050700004f780097
:102270001e4078000004e00007003a002e009000a5
:102280006002b0002e019000800078002e40900087
:102290002f060700004f78001e4078000080fa00eb
:1022a000000006000c00fa00400798005107980053
:1022b000e1004700050009008058eb005e00900037
:1022c00070050700004f78001e4078000004e00011
:1022d00040003a004e0090000000e0003d00320057
:1022e0000e00e800de01900062c0b30080007800bc
:1022f00070cfb3004efe0700004f78001e409000e4
:102300000080fb008000eb004c09dd00c401de0012
:10231000830171004c01dd002e4090000082fb0023
:102320008002eb004428dd00cc20de00810070003c
:102330004420dd0000017100818171003e40900069
:102340000080fb004400de00004078000080fb00bd
:102350008000eb0000007100818071004e01900050
:1023600020019800310198004e4090000080fb0051
:102370008000eb004c09dd00c401de008301710028
:102380004c01dd005e4090000082fb008002eb000b
:102390004428dd00cc20de00810070004420dd00f8
:1023a00000017100818171006e4090000080fb008f
:1023b0004400de00004078000080fb008000eb005d
:1023c00000007100818071004e0190000089be0004
:1023d0000200370000c0eb00004f78001e4078007c
:1023e0000080fa00000006001400fa00889fbe007a
:1023f00070079800010f9800120f98006000b80055
:10240000008fbe001e0890001e0507004047980080
:102410004e4090000004e00069003a007e00900009
:102420008e089000c309de004d0add004301de0086
:10243000020172001e089000500090008000eb0026
:102440000000400081804800000151008181590056
:102450001e08900060009000cf80de00809ab900d6
:10246000828bb90086027800050242000010b80095
:1024700001024200840078004509dd004b00de00c7
:1024800000007100cb08de0030079800410798007b
:102490007e0090008e089000c409de004c0add002a
:1024a0004401de00020172001e08900050009000fe
:1024b0008000eb0000015100818159007e009000f6
:1024c0008e089000c40ade004c0bdd004402de00e2
:1024d000040273001e089000500090008000eb0082
:1024e0000000520081805a00809ab900828bb900a6
:1024f00086027800050242000010b8000102420086
:1025000084007800cc09de00440add004c01de00c6
:10251000020172001e08900070009000cf80de0063
:10252000809ab900828bb9008602780005024200c9
:102530000010b80001024200840078004209dd006a
:102540004e00de0000007100ce08de00500798004b
:10255000610798003e019000ce0190005e0090005f
:10256000ee00900002004000838048001e099000a9
:1025700010119800211198001e089000a0109000e2
:1025800010109000e509b900e002b900840178005c
:1025900003014100530020000300b8000101410085
:1025a000820078000008b0000180b000480bdd0018
:1025b0004804de0008047300c88cde00088fbe00eb
:1025c0001e0078009e0090004f04be000080fa00bc
:1025d000000006004000fa00889fbe008a9fbe00ef
:1025e0008c9fbe0070079800010f9800120f980092
:1025f0006000b800008fbe001e089000a104070014
:10260000404798004e4090000004e0005a013a0014
:102610001e089000a0109000101090008181d10041
:102620000081d30000602000f1ff2f000200400075
:102630008380480030079800410798003e009000d2
:10264000ce0090004e09dd004205de000a05710053
:10265000c28dde003e009000ce009000ce09dd006d
:102660004204de0008847100c28cde0088d9b90003
:102670008ac8b900000141000850b80001014100ba
:1026800082007800450add004b06de000c06720071
:10269000cb8ede001e08900050089000cf80de0038
:1026a00080ebb900860178008c89b90082814100f5
:1026b0000060b800818141008300780050079800d5
:1026c0006107980050079800610798001e08900065
:1026d000400890006101b9003e0090008382b9007b
:1026e0004e0090008280b900000242003e0090003f
:1026f0000200b8000102420084007800000140009e
:10270000818148005e009000ee00900000004100d2
:102710008180490050079800610798005e00900092
:10272000ee0090004e09dd004204de000804710056
:10273000280f9800c289de00330f98001e08900011
:1027400030089000cf80de00c000dd0000002000d7
:102750002e0a9000be0a90000400400085804800c8
:1027600050079800610798001e089000200890000c
:102770006102b9003e009000ce0090004e0cdd00da
:102780004203de0006037400460f98004289de0013
:10279000520f98003e009000ce0090004e0bdd00de
:1027a000c201de0083017300630f9800428cde00db
:1027b000780f9800de089000ee0990008389b90038
:1027c0007e0b90004e0c900088b0b90000014100d3
:1027d000ce0990006e0b90000618b8000101410070
:1027e000820078004309dd004d04de00080471001a
:1027f00008179800cd89de00131798000e1390007b
:1028000086a9b9001e14900084c0b90000014100df
:102810008e1190000320b800010141008200780071
:10282000cd0add004302de00048272002417980006
:10283000438bde00361798001e08900010089000a9
:102840006101b9003e0090008382b9004e00900003
:102850008280b900000242003e0090000200b800f1
:1028600001024200840078008180d1000080d30002
:102870002e119000be11900002004000838048009d
:10288000c289de00031f98004f8ade00141f9800e3
:102890000e1990009e199000320798004307980087
:1028a0003e019000ce0190000000280001002000b1
:1028b00002014000838148001e089000000890003b
:1028c0008000eb00809ab900828bb9008602780004
:1028d000050242000010b8000102420084007800a6
:1028e0004109dd004f04de0008047100281f980034
:1028f000cf89de00331f98002e1a9000be1a900078
:1029000034079800450798007e0090008e089000dc
:1029100060011000e08118005e009000ee00900061
:10292000440bdd00cc02de008502730045179800e1
:102930004c8cde00581798004e109000de1090006e
:10294000000051008180590052c320008289b900e3
:10295000e002b900840178000301410053c3200064
:102960000300b8000101410082007800020020004d
:1029700003352c00021f4000039748003e009000e2
:10298000ce009000e00f5000e08f58007800320039
:102990001e0078009e009000e00f5000e08f58006d
:1029a0000b0035001e0078009e00900000024000e1
:1029b000818248003e009000ce0090000001be00e1
:1029c0000400be00cef90700008fbe0009003700ea
:1029d0003e009000ce0090000001be001e00780076
:1029e0009e009000c6f9070000004000818048006a
:1029f000008fbe001e089000001090006101b90019
:102a00001e0078009e009000c30ade004d0bdd0022
:102a10004302de00040273001e0078009e00900056
:102a20004d0cdd004300de0000007400c308de0032
:102a300080abb900848cb900880378000703430099
:102a40000020b8000103430086007800430add003f
:102a50004d00de0000007200cd08de00809ab90053
:102a6000828bb90086027800050242000010b8008f
:102a700001024200840078004409dd004c04de00bd
:102a800008047100481f9800cc89de00531f98008d
:102a90004e1a9000de1a90003407980045079800ff
:102aa0001e0078009e009000ce0add004200de008d
:102ab00000807200c208de000001be001e08900007
:102ac00070089000cf80de00809ab900828bb90038
:102ad00086027800050242000010b80001024200a0
:102ae000840078004309dd004d04de000804710015
:102af000681f9800cd89de00731f98006e1a900041
:102b0000fe1a900054079800650798003e01900057
:102b1000ce0190005e009000ee00900002014000a7
:102b2000838148001e08900060089000cf80de007e
:102b300002004000838048004c0bdd00c402de0030
:102b40008502730065179800448cde0078179800a2
:102b50001e0078009e0090006e119000fe11900003
:102b60000200400083804800008fbe000200370052
:102b70006000b800008fbe001e0078009e0090002c
:102b80004f06be004f05be004f04be000080fa0095
:102b9000000006002000fa00889fbe008a9fbe0049
:102ba000500f9800610f9800720f98006000b800f5
:102bb0006011b800009fbe000297be007e08900022
:102bc00030030700004f98000e4890000004e0001a
:102bd0006d013a007e089000a01090001010900047
:102be0000002be004fabde008603780000c020006c
:102bf000e1ff2f00f2ff2f00f3ff2f000000420043
:102c000081804a0002014b0083814b0050079800ed
:102c10006107980072079800030f98005e02900009
:102c2000ee0290007e0390008e0b90005e009000fc
:102c3000ee0090007e0190008e09900044fa07009b
:102c40000205be000004be007e08900050089000ff
:102c5000cf80de006109b9000203be000002be00a1
:102c60000800be000a01be0039fa0700100f9800e4
:102c7000210f9800320f9800430f98007e089000b3
:102c800040089000cf80de006109b9005e0290002c
:102c9000ee0290007e0390008e0b90002cfa07004d
:102ca000c111dd004f0ade00830172004109dd0021
:102cb0004f02de0002017200c100dd000000eb00e7
:102cc0001e0a9000ae0a90003e0b9000ce0b9000c2
:102cd0000000420081804a0002014b0083814b00ca
:102ce000100f9800210f9800320f9800430f9800a2
:102cf0007e08900030089000cf80de006109b900a6
:102d0000c309dd004d04de00830174004301dd00d2
:102d10006000b8001e0a9000ae0a90003e0b9000c2
:102d2000ce0b90000000420081804a0002014b005f
:102d300083814b00100f9800210f9800320f9800ec
:102d4000430f98005e029000ee0290007e03900018
:102d50008e0b90005e009000ee0090007e019000cf
:102d60008e099000faf907000205be000004be00bb
:102d70007e08900020089000cf80de006109b90035
:102d80000203be000002be000800be000a01be0031
:102d9000eff907000205be000004be004844de0053
:102da000484add0008047200c84cde004852dd00cd
:102db000890472004855de00485add000a05720099
:102dc000c8ddde007e08900010089000cf80de0095
:102dd0006109b9005e029000ee0290007e0390004f
:102de0008e0b9000daf90700cc19dd004412de00ea
:102df000830172004c11dd00440ade000201720002
:102e0000cc08dd004402de00810072004c00dd00d1
:102e10000000440081804c0002014d0083814d0080
:102e2000500798006107980072079800030f9800f8
:102e30005e029000ee0290007e0390008e0b9000e8
:102e40006000b800020028000300200000044200d7
:102e500081844a0002054b0083854b007e08900068
:102e6000000890008000eb006011b8000203be0073
:102e70000002be000800be000a01be00b4f907004f
:102e80004110de004f1cdd0000007400c198de0020
:102e90004f99de00cf99de00500798006107980037
:102ea00072079800030f98005e009000ee009000fb
:102eb0007e0190008e099000e00f5000e08f5800d6
:102ec000e00f5900e08f5900ab00320002002000f3
:102ed000030120005e089000ee0890000000510001
:102ee000818059006011b800009fbe000297be00ab
:102ef0001e0078009e0090002e019000be01900000
:102f00000203be000002be00cf33dd00412cde0014
:102f1000870374004f2bdd004124de00060374009c
:102f2000cf22dd000002eb001e089000ae089000ea
:102f30003e099000ce0990000000520081805a00a6
:102f400002015b0083815b0054c320000500200068
:102f50006033b8007ef907005e029000ee02900038
:102f60007e0390008e0b90001bf90700009fbe00af
:102f70000297be007e089000001090006104b90026
:102f8000614db9001e0078009e0090002e01900057
:102f9000be0190004d00de00430add00000072001b
:102fa000cd08de004312dd00810072004d11de000d
:102fb000431add0002017200cd99de000203be005b
:102fc0000002be000800be000a01be0060f9070052
:102fd0000205be000004be001e0078009e009000a6
:102fe0002e019000be0190004d00de00430add007e
:102ff00000007200cd08de004312dd008100720087
:103000004d11de00431add0002017200cd99de0091
:103010000203be000002be000800be000a01be009e
:103020004bf907004908de004714dd00000074007a
:10303000c910de00471cdd00810074004999de00e4
:10304000cf99de005007980061079800720798003a
:10305000030f98007e08900070089000cf80de007b
:103060006109b9001e0278009e0290002e039000b4
:10307000be03900036f907004308de004d12dd0064
:1030800000007200c310de004d1add0081007200e6
:103090004399de00cf99de00100f9800210f9800b1
:1030a000320f9800430f98001e0478009e04900091
:1030b0002e059000be0590005e009000ee0090008e
:1030c0007e0190008e0990000002440081824c0035
:1030d00002034d0083834d001e089000ae0890004f
:1030e0003e099000ce0990000000420081804a0015
:1030f00002014b0083814b000203be000002be00b0
:103100004822de00482cdd0004027400c82ade00dc
:103110004834dd00850274004833de00483cdd00a1
:1031200006037400c8bbde007e08900060089000b3
:10313000cf80de006109b900c419dd004c14de0047
:10314000830174004411dd004c0cde0002017400a8
:10315000c408dd004c04de00810074004400dd0082
:10316000001f4200019f4a00021f4b00038f4b00cb
:103170006e00b100040037006000b8006011b800b4
:10318000009fbe000297be001e0078009e009000c7
:103190004f05be004f04be000080fa00000006008c
:1031a0001400fa00889fbe008a9fbe007007980036
:1031b000010f9800120f98006000b800008fbe0049
:1031c0001e089000af010700404798004e40900055
:1031d0000004e0005d003a007e0090008e08900040
:1031e00059f607000200200003682400d5f5070007
:1031f0000004be001e089000500090008000eb000c
:1032000051f607000200200003482400cdf5070016
:103210000001be000800be006cf507000004be00ff
:103220001e08900060009000cf80de0043f607008b
:103230000001be000800be009af6070030079800a3
:10324000410798007e0090008e0890003ef607002f
:103250000200200003802400baf507000004be002d
:103260001e089000500090008000eb0036f607002a
:103270000200200003602400b2f507000001be0038
:103280000800be0051f507000004be007e0090005b
:103290008e0890002cf60700020020000380240016
:1032a000a8f507000005be001e0890005000900021
:1032b0008000eb0024f607000200200003602400d9
:1032c000a0f507000001be000a00be003ff50700a0
:1032d0000001be000800be0072f607000004be0038
:1032e0001e08900070009000cf80de0013f60700eb
:1032f0000001be000800be006af6070050079800f3
:10330000610798005e019000ee0190003e00900081
:10331000ce0090002ef50700ccf507001e099000a6
:1033200010119800211198005e019000ee019000ac
:103330003e009000ce00900025f50700020020001e
:10334000035a24007ff50700008fbe001e0078009e
:103350009e0090004f05be004f04be000080fa00a2
:10336000000006001400fa00889fbe007007980055
:10337000010f9800120f98006000b800008fbe0087
:103380001e0890003f010700404798004e40900003
:103390000004e000bf003a001e089000a01090005a
:1033a00010109000e5f50700020020000300240043
:1033b00064f5070002002000a377240003f507004e
:1033c00030079800410798003e019000ce01900020
:1033d0003e009000ce00900032f607000004be00d0
:1033e0001e08900050089000cf80de00d3f5070043
:1033f0000001be000800be002af6070002002000ff
:10340000037024004ff507005007980061079800eb
:103410001e08900040089000cf80de00c7f507002e
:103420003e019000ce0190001ef607000001be0094
:10343000e7f407000001be005e009000ee0090007f
:10344000e3f407005007980061079800020020008d
:10345000030824005e009000ee00900039f507009c
:103460000004be001e08900030089000cf80de00ef
:10347000b2f50700020020000378240009f60700d7
:103480000001be000800be00d1f4070050079800fc
:10349000610798001e08900020089000cf80de0091
:1034a000a6f507003e019000ce019000fdf5070053
:1034b0003e019000ce019000faf5070002002000c6
:1034c000039024001ff507000004be001e089000b2
:1034d00010089000cf80de0098f507003e019000b4
:1034e000ce019000eff507000001be000800be000d
:1034f000b7f40700020020000390240011f5070034
:103500003007980041079800020020000370240053
:103510003e009000ce0090000af507000200200057
:1035200003f82300aaf407000004be001e08900060
:10353000000890008000eb0083f507000001be004a
:103540000800be00d7f50700300798004107980033
:103550007e0090008e0890007bf507000001be0001
:10356000000020000198240098f40700008fbe009e
:103570006011b8003e009000ce00900074f5070086
:103580000000e00041003200020020000358240047
:103590005e009000ee009000eaf407000001be001b
:1035a0001e0078009e00900088f4070002002500ad
:1035b000335c2400bbf507003e019000ce01900073
:1035c000e0f40700008fbe001e089000001090007d
:1035d000cf80de0059f507001e0178009e019000a3
:1035e000b0f507001e0178009e019000adf50700c0
:1035f0000200200003f02400d2f4070030079800f6
:10360000410798001e08900070089000cf80de00ef
:103610004af507001e0178009e019000a1f5070001
:103620000200200003702400c6f407005007980031
:10363000610798005e019000ee0190003e0090004e
:10364000ce00900062f407000004be001e08900047
:1036500060089000cf80de0038f507000001be0052
:103660000800be005af407000200200003182400de
:10367000b4f407000001be001e0078009e00900018
:1036800053f40700008fbe00020037006000b8004e
:10369000008fbe001e0078009e0090004f04be0008
:1036a0000080fa00000006001c00fa00500f98008d
:1036b0006000b800008fbe006000b80020079800ce
:1036c000310798006000b800400798005107980043
:1036d0006000b8006007980071079800803e2000e5
:1036e00001002000000f9800110f9800007d2000bd
:1036f00001002000200f9800310f98005e08900014
:1037000060000700005f98000e5890000004e00081
:1037100058003a005e089000606090000081fb0055
:103720001000200001002000820178008301e900e0
:10373000030033000000400081804800fbff370099
:103740008100d1000080d3002e0990008191b90042
:10375000be099000809ab9008401780003014100fd
:10376000ae0990000018b800010141008200780005
:10377000200798003107980020079800310798002b
:103780005e089000706090000081fb001000200037
:1037900001002000820178008301e900030033006a
:1037a0000000400081804800fbff37008100d1000d
:1037b0000080d3002e0990008191b900be099000cd
:1037c000809ab9008401780003014100ae0990009d
:1037d0000018b800010141008200780040079800fd
:1037e0005107980040079800510798005e08900024
:1037f000706090000004e00003003200401f2000d1
:1038000001002000010037006000b8006007980048
:10381000710798000e0990009e0990002e009000fc
:10382000be00900002014000838148006e009000bd
:10383000fe00900002014000838148004e0090008d
:10384000de0090000200400083804800421f2000fc
:1038500003002000021f4000039748001e0078006c
:103860009e009000823e20000300200024f6070006
:10387000008fbe001e007800004078000080fa0033
:10388000000006000400fa00100798001e009000d7
:103890000000e0000c0032001e00900020009000ac
:1038a0000000e000080032001e0090003000900090
:1038b0000000e000040032001e0090004000900074
:1038c0000000e00003003a0000c0eb00004f780069
:1038d000020037000040eb00004f78001e407800e7
:1038e0000080fa00000006000a00fa0010079800a5
:1038f0002107980032079800034f980010c0b300ca
:10390000004f7800140037001e80fb0000004000cc
:103910000000e900ae009000008040009e80fb00a7
:103920001e0190008100410091407800014878001c
:103930001e80fb0000004000ae00900000804000b0
:103940009e80fb003e019000810041009140780084
:10395000014878001e4fe8000e4890009e40780015
:1039600080cf5000e8ff39000080fa000000060018
:103970001c00fa00500f9800e100470017000900f2
:103980008058eb005e089000beff0700004f7800f3
:103990001e4078000004e0006a003a000e00e800d3
:1039a000de09900082c1b3008000780080c8b300b7
:1039b0009ff80700004f78001e4078000004e000e8
:1039c00060003a002e4090000080fb00c800dd003f
:1039d0001e4090000080fb00810070005e08900097
:1039e000510098004e4090000080fb00c800dd00b0
:1039f0003e4090000080fb00810070005e08900057
:103a0000610098006e4090000080fb00c800dd005f
:103a10005e4090000080fb00810070005e08900016
:103a2000710098000e4890000080fb00c800dd0087
:103a30007e4090000080fb00810070005e089000d6
:103a4000010898002e4890000080fb00c800dd00af
:103a50001e4890000080fb00810070005e0890000e
:103a6000110898004e4890000080fb00c800dd005f
:103a70003e4890000080fb00810070005e089000ce
:103a8000210898006e4890000080fb00c800dd000f
:103a90005e4890000080fb00810070005e0890008e
:103aa000310898000e5090000080fb00c800dd0037
:103ab0007e4890000080fb00810070005e0890004e
:103ac000410898002e5090000080fb00c800dd00e7
:103ad0001e5090000080fb00810070005e08900086
:103ae000510898004e5090000080fb00c800dd0097
:103af0003e5090000080fb00810070005e08900046
:103b0000610898006e5090000080fb00c800dd0046
:103b10005e5090000080fb00810070005e08900005
:103b2000710898000e5890000080fb00c800dd006e
:103b30007e5090000080fb00810070005e089000c5
:103b4000011098001e4078000080fa000000060076
:103b50000c00fa006047980041079800520798004f
:103b60000040eb00104798000040eb002047980011
:103b700040cfb3003047980050cfb3004047980083
:103b80005e0090003fff0700004f78001e40780065
:103b90000004e00068003a004e0090000000e000e1
:103ba000650032000e00e800de01900022c0b30084
:103bb0008000780040cfb3001df80700004f780068
:103bc0001e4078000004e00063003a005e009000b0
:103bd000a3f80700004f78001e4078000004e000c2
:103be00058003a001e409000ff4060004e009000d8
:103bf000104078000080fb004500dd0000407800a8
:103c000000c07000104798001e409000804078006f
:103c100030ceb30080c060004e0090001040900095
:103c20000080fb004200dd00004078007c40600026
:103c300000c07000104798002e409000ff406000c8
:103c40004e009000204090000080fb004500dd0009
:103c50000040780000c07000204798002e4090007f
:103c60008040780030ceb30080c060004e009000ed
:103c7000304090000080fb004200dd0000407800f2
:103c80007c40600000c07000204798002e409000eb
:103c900080407800e0cfb30080c060004e0090000c
:103ca000404090006140600000c0700020479800d4
:103cb0008e00e80063004700de01900022c0b300e0
:103cc00006f80700004f78001e4078000004e0006e
:103cd0001e003a005e009000ce00900062022000bc
:103ce0000201400004000900315978005100b10080
:103cf0006e4090000004e000160032001e4090006c
:103d000080407800c0cfb30080c060006e4090005b
:103d10006340600000c07000104798008e00e8000b
:103d200063004700de01900012c0b300ebf707000c
:103d3000004f78000800370000c0eb00004f78000b
:103d400005003700000000000300370000000000fd
:103d500001003700000000001e4078000080fa00db
:103d6000000006002a00fa00881f780040679800cb
:103d70005167980032179800036f9800907d2800d3
:103d800001002000280407006000b8001007980018
:103d900021079800e60047000e0009008018eb009c
:103da00000c0eb00604798005e6090000074a000c7
:103db0006047980014cea9000040eb00104798001f
:103dc0000d0037001e4090000084fb001e40900054
:103dd0000080fb00660040006e4078009b030700f7
:103de0008040780066004400017778001e40900013
:103df0000040e800104798001e4090008080fb00c3
:103e00000e6890000080fb000000e800808f5000ea
:103e1000ecff3500000000000112800000082000c7
:103e2000008060000000e000fbff320014cea8001c
:103e30000040eb00004f7800090037001e80fb00b7
:103e4000be109000008040009e80fb008100e800d2
:103e5000e6804000eec07800014878001e4fe80080
:103e60000e6890009e40780080cf5000f3ff39002c
:103e70001e009000004078004f0478000080fa0097
:103e8000000006000c00fa00604798007147980097
:103e900042079800234f98006000b8001007980070
:103ea0002107980014cea9007e4090006703070008
:103eb0000040eb00004f7800060037001e80fb003a
:103ec000ce00900000804000104078005f030700a3
:103ed0001e4fe8002e4890009e40780080cf500092
:103ee000f6ff3900000000000112800000082000e9
:103ef000008060000000e000fbff320014cea8004c
:103f00001e009000004078000080fa0000000600cb
:103f10000400fa00008fbe001e0078009e00900092
:103f20006011b80034862a00252120006033b800d3
:103f300087f50700843e2000050020006033b800ac
:103f40001af507000000be00b70307000080fa0062
:103f5000000006001a00fa00889fbe008a9fbe007b
:103f600060002100d0fd0700004f7800e0c1b300e1
:103f700039010700b0e7240051002000aa03070020
:103f800050cab30034010700b0e7240051002000fc
:103f9000a503070010ceb3002f01070072004700f1
:103fa00061002100bff80700104798001e0890002c
:103fb000ae089000620021000bf90700100798007e
:103fc000210798003e089000ce0890006200210072
:103fd000f0fa070030079800410798003e00900073
:103fe000ce009000d8f207005007980061079800b3
:103ff00002002000033824005e009000ee009000d4
:1040000050f20700500798006107980002682e00e0
:10401000537c24005e009000ee00900049f20700ff
:104020005007980061079800f29c2d0023e42300bc
:104030005e009000ee0090004ef3070050079800dd
:10404000610798005e019000ee01900000002000e2
:1040500001f82300ddf10700500798006107980080
:10406000d2592f00d38024005e009000ee00900013
:104070000cf3070050079800610798000200200029
:10408000a34724005e009000ee009000d0f10700ee
:1040900050079800610798000200200003122400d6
:1040a0005e009000ee009000fef2070050079800be
:1040b000610798005e009000ee00900084f2070017
:1040c00070079800010f980014aea800b0e7240014
:1040d00051002000540307001e00900000407800ab
:1040e000dd000700b0e72400510020004e03070068
:1040f0001e009000ae0090004809dd004805de007b
:104100000a057100c88dde000a407800d200070061
:10411000b0e7240051002000430307001e00900078
:10412000ae009000408cde00cf8cde0008407800ae
:10413000c9000700b0e72400510020003a0307003f
:104140001e009000ae0090004808de00004078009d
:10415000c1000700b0e7240051002000320307002f
:104160007e00900000407800bb000700b0e724000c
:10417000510020002c0307007e0090008e08900064
:104180004809dd004800de0000007100c808de00bc
:1041900000407800b0000700b0e724005100200084
:1041a000210307007e0090008e0890004008de008a
:1041b00000407800a8000700b0e72400510020006c
:1041c000190307007e0090008e0890004808de006a
:1041d00000407800a00007004f05be004f04be005d
:1041e0000080fa00000006000c00fa00400798006a
:1041f000510798005a01070014cea80000c6b3006a
:104200001047980060cbb300204798000e00e800ec
:1042100023c0b300000178008040eb000040eb00b9
:1042200018ff0700b0e7240051002000fe0207003d
:10423000700021008040eb000148780080002100e0
:104240008040eb000148780020eb2100508088007e
:1042500020f421006080880080f8210070808800b0
:104260006000210018f70700004f78006300470046
:104270006100210069f70700004f780010c0b3000b
:104280006047980050c0b3004047980010c0b3008a
:10429000304798000040eb0050479800630047000b
:1042a00061002100a2f70700004f7800630047007b
:1042b0006100210059f70700004f780061002100dc
:1042c00030c0b300e4f70700004f780063004700f8
:1042d0006100210051f70700004f780002d0bf00b5
:1042e0000004e000010032001aff070030862a00b7
:1042f00021212000cc020700f8ff37000000fa005f
:1043000080002000001188002222ef00a00420007d
:10431000401188002168a80021e2a8002342a800db
:10432000c0052100c0828800c0052100b08288003d
:1043300040062100a082880040062100908288006b
:10434000d08280000010a000d0828800d08280003f
:104350000090a000d0828800d1828000f0ef2f0072
:1043600000806000d0828800d1828000e0ff2f00b2
:1043700000806000d08288000080fa000000060003
:104380000200fa000040eb00004f7800a08280009d
:10439000104f7800a08280000000e800a082880012
:1043a000a1828000c0062100808f500002003a00e8
:1043b00040062100a0828800a182800090828000b7
:1043c000808f500003003a00d08280000010a000cf
:1043d000d0828800d1828000e0ff2f000080600042
:1043e000d08288001e4078000080fa00000006009d
:1043f0000600fa00881f780010079800210798002f
:104400000000eb00000f780009003700d082800028
:10441000620060000000e0000a003a001e00900008
:104420001e044000d6ff0700004c78001e0fe80075
:104430002e0090009e007800808f5000f3ff39001e
:1044400001003700000000001e0078004f047800d3
:104450000080fa00000006000200fa00004f780019
:104460002188a900b08280001e487800b0828000b8
:104470000000e800b0828800b18280004006210080
:10448000808f500002003a00c0052100b0828800f1
:10449000d1828000f0df2f0000806000d082880091
:1044a000c1828000b0828000808f500003003a00fb
:1044b000d08280000080a000d08288002188a800df
:1044c0000080fa00000006000600fa0010079800bd
:1044d000210798000000eb00000f78000a00370069
:1044e000d182800000102000008060000000e00009
:1044f0000a003a001e0090001e00400010407800a4
:104500001e0fe800d4ff07002e0090009e007800e8
:10451000808f5000f2ff39000100370000000000da
:104520001e0078000080fa00000006000200fa0079
:104530000000eb00000f7800d18280000010200006
:10454000008060000000e000010032001e30a0008a
:10455000d182800000202000008060000000e00088
:10456000010032001e40a000d08280006100600087
:104570000000e000010032001e00a000d082800098
:10458000620060000000e000020032001e20a00077
:10459000010037001e10a0001e0078000080fa0005
:1045a000000006000200fa00000f7800a0828000e0
:1045b0009e004000c0062100808f50000900360098
:1045c000a08280009e004000c00621000000ea009a
:1045d000008040004106210000804000104078002b
:1045e00003003700a08280001e00400010407800c9
:1045f0000080fa00000006000000fa00d08280006f
:10460000610060000000e0000f003a00a18280001d
:1046100090828000808f500005003600a0828000cc
:1046200080007800908280000080500007003700f2
:10463000a08280008000780090828000008050007e
:1046400068004000010037000000eb000080fa0025
:10465000000006000000fa00d18280000010200057
:10466000008060000000e0000f003a00c18280007e
:10467000b0828000808f500005003600c08280002c
:1046800080007800b0828000008050000700370072
:10469000c082800080007800b082800000805000de
:1046a00068004000010037000000eb000080fa00c5
:1046b000000006000000fa00d08280000000d10057
:1046c000614060000080fb0000f0a7000000ea00ed
:1046d0000000ea004f00de00004078000080fa0091
:1046e000000006000000fa00d08280004800de00d2
:1046f000614060000080fb0000f0a7000000ea00bd
:104700000000ea004f00de00004078000080fa0060
:10471000000006000000fa00101180000080fa007e
:10472000000006000000fa00c3e8a8000000000036
:10473000000000000080fa00000006000200fa00fd
:10474000000f780021028000200f20000080600010
:104750001e007000200288000080fa0000000600a1
:104760000000fa005a010700080007009c0107003a
:10477000b0000700e1fe0700eaff0700000220008a
:10478000eeff07000080fa00000006000000fa00bb
:1047900000142300203a88004827ef004e27ef003e
:1047a00050092000303a88004420a90044c0a900e4
:1047b00044e0a9004480a9001200200080072000e6
:1047c000a1092000337420008049780081497800d5
:1047d000824978001200200060042000710520004a
:1047e000237420008049780081497800824978004c
:1047f00000000000103a8000610060000000e0004e
:10480000fcff3a000080fa00000006000000fa00f9
:10481000003a80000080fa00000006000200fa0062
:10482000faff0700000f78001e0078002400070040
:104830000004e000020032000000280071000700c0
:104840001e0078002a0007000004e0000200320089
:10485000000024006b0007001e00780032000700f3
:104860000004e00002003200002020006500070084
:104870001e0078003a0007000004e0000200320049
:10488000000820005f0007001e00780042000700bb
:104890000004e0000200320000042000590007007c
:1048a0001e0078004a0007000004e0000200320009
:1048b00000012000530007000080fa0000000600fd
:1048c0000400fa00100798000040eb00004f780049
:1048d0001e0090000000e00002003d0010c0b30088
:1048e000004f78001e4078000080fa0000000600ab
:1048f0000400fa00100798000040eb00004f780019
:104900009e00900000002400008060000000e00095
:104910000200320010c0b300004f78001e40780043
:104920000080fa00000006000400fa00100798005a
:104930000040eb00004f78009e0090000020200017
:10494000008060000000e0000200320010c0b300f0
:10495000004f78001e4078000080fa00000006003a
:104960000400fa00100798000040eb00004f7800a8
:104970009e00900000082000008060000000e00021
:104980000200320010c0b300004f78001e407800d3
:104990000080fa00000006000400fa0010079800ea
:1049a0000040eb00004f78009e00900000042000c3
:1049b000008060000000e0000200320010c0b30080
:1049c000004f78001e4078000080fa0000000600ca
:1049d0000400fa00100798000040eb00004f780038
:1049e0001e009000700060000000e0000200320035
:1049f00010c0b300004f78001e4078000080fa001d
:104a0000000006000200fa00000f78009e80ea0015
:104a1000003a800000806000003a88000080fa00c0
:104a2000000006000000fa004027ef000080fa00b6
:104a3000000006000000fa00700620001012880036
:104a40001000200020128800c000280000128800fa
:104a50000080fa00000006000400fa00000f780051
:104a60001107980000000000001280006200600042
:104a70000000e000fcff3a001e00780010407800c3
:104a80000080fb004012880000000000011280003e
:104a900000022000008060000000e000fbff3a0000
:104aa00040128000804078001e009000014878008d
:104ab0000080fa00000006001800fa00100f9800ad
:104ac000210f9800320f98000000eb00000f7800d3
:104ad0000000eb00100798000000eb007007980042
:104ae0000000eb00000f9800100020006007980005
:104af0001e0890000000e00005003a000000eb00f6
:104b00005007980070004700200798000400370005
:104b1000ee009000510798009e0890002107980031
:104b20003e0890000000e00005003a000000eb00a5
:104b3000400798006e0047003007980005003700d6
:104b4000ee00900041079800be08900031079800e1
:104b50000000000000128000620060000000e00021
:104b6000fcff3a001d003700001280006200600068
:104b70000000e00009003a002e009000104078008c
:104b80000080fb0040128800ae0090005e009000a4
:104b900000804000200798001e0fe80001128000ee
:104ba00000022000008060000000e0000b003a00de
:104bb00040128000804078003e009000014878005c
:104bc000be0090004e00900000804000300798002a
:104bd0001e0090000000e800100798002e089000ca
:104be0009e007800808f5000dfff390010003700f2
:104bf0000112800000022000008060000000e00040
:104c00000b003a0040128000804078003e00900087
:104c100001487800be0090004e00900000804000e7
:104c2000300798001e0090000000e8001007980070
:104c30009e0090002e089000808f5000ecff3900fd
:104c40001e0078000080fa00000006000400fa0050
:104c5000204798000e80e8008e0078007eff070055
:104c60001e4078000080fa00000006000600fa00ee
:104c7000000f780011079800220798002e0190007d
:104c80009e0090001e0078008bff07000080fa0055
:104c9000000006000000fa00111280000040200011
:104ca000008060000000e00002003a000000eb001d
:104cb00001003700100020000080fa00000006000c
:104cc0000000fa00001280000080fa0000000600d8
:104cd0000000fa00042eef00142eef00f001200077
:104ce00000708800f0612f00807088000c2eef00ab
:104cf0001c2eef000a2eef001a2eef00062eef00fa
:104d0000162eef0030012000707088003000200067
:104d1000f0708800113a8000f00b200000816000e4
:104d20006004200071052000237420008049780071
:104d3000814978008249780041348000f00f2c00ce
:104d4000008060000080a000403488002136800090
:104d500000f82f0080806000c00220000100700079
:104d600020368800103a8000000178000260a00020
:104d70006004200071052000237420008049780021
:104d800081497800824978000080fa00000006001e
:020000040000fa
:104d90003210000020000000800000000010000021
:104da0000200000082000000ffff0000521000001f
:104db0001a00000080000000061000002c00000017
:104dc00080000000021000000200000080000000cf
:104dd000041000000200000080000000000000003d
:020000040000fa
:104de0000000fa0001438000f0f82f00008060000e
:104df0000040a000004388003142800080ff2f0067
:104e0000008060000000a000304288002142800045
:104e1000f0ff28000080600000c0a0002042880051
:084e20000080fa00000006000a
:020000040000fa
:104e2800f03fb1000180b10006003500ee03090033
:104e380000000000403fb1000180b100fbff3d00d1
:104e48001000b000203fb0000200350000800900cb
:084e580000000000000006004c
:020000040000fa
:104e6000000f78009e00780001808800ffff370067
:104e70000000fa002003210080077800a004210030
:0c4e8000000188000080fa00000006001d
:020000040000fa
:02000004000af0
:04afe000cfff00009f
:020000040000fa
:02000004000af0
:04afe400cfff00009b
:020000040000fa
:02000004000af0
:04afe8007fff0000e7
:020000040000fa
:02000004000af0
:04afec007bff0000e7
:020000040000fa
:02000004000af0
:04aff000f8ff000066
:020000040000fa
:02000004000af0
:04aff400ffff00005b
:00000001FF
